:020000040800F2
:10000000900600202902000839070008BF030008F5
:1000100035070008E3020008B90A000800000000E4
:10002000000000000000000000000000850800083B
:10003000E7020008000000003B07000875090008FF
:10004000430200084302000843020008430200087C
:10005000430200084302000843020008430200086C
:10006000430200084302000843020008430200085C
:10007000430200084302000843020008430200084C
:10008000430200084302000843020008430200083C
:10009000430200084302000843020008430200082C
:1000A000430200084302000843020008430200081C
:1000B000430200084302000843020008430200080C
:1000C00043020008430200084302000843020008FC
:1000D00043020008430200084302000843020008EC
:1000E00043020008430200084302000843020008DC
:1000F00043020008430200084302000843020008CC
:1001000043020008430200084302000843020008BB
:1001100043020008430200084302000843020008AB
:10012000430200084302000843020008430200089B
:10013000430200084302000843020008430200088B
:10014000430200084302000843020008430200087B
:10015000430200084302000843020008430200086B
:10016000430200084302000843020008430200085B
:10017000430200084302000843020008430200084B
:10018000430200084302000800F002F800F03CF8C7
:100190000AA090E8000C82448344AAF10107DA45E2
:1001A00001D100F031F8AFF2090EBAE80F0013F0F8
:1001B000010F18BFFB1A43F001031847880900001C
:1001C000A8090000103A24BF78C878C1FAD85207AD
:1001D00024BF30C830C144BF04680C6070470000C1
:1001E0000023002400250026103A28BF78C1FBD840
:1001F000520728BF30C148BF0B6070471FB500F0E1
:100200009BFC1FBD10B510BD00F031F81146FFF783
:10021000F5FF00F053FC00F04FF803B4FFF7F2FFD6
:1002200003BC00F057F80000094880470948004720
:10023000FEE7FEE7FEE7FEE7FEE7FEE7FEE7FEE796
:10024000FEE7FEE704480549054A064B70470000F3
:100250007D09000889010008900000209006002018
:10026000900200209002002070477047704775464A
:1002700000F02CF8AE4605006946534620F0070012
:10028000854618B020B5FFF7DDFFBDE820404FF0F0
:1002900000064FF000074FF000084FF0000B21F070
:1002A0000701AC46ACE8C009ACE8C009ACE8C0093D
:1002B000ACE8C0098D46704710B50446AFF3008026
:1002C0002046BDE81040FFF7A8BF00000048704777
:1002D0002C00002001491820ABBEFEE726000200DA
:1002E000704700BFFEE77047F0B50A4600210023C3
:1002F000002400BF3DE0012505FA01F3156805EA79
:1003000003049C4234D105684F000326BE40B54328
:10031000056015794E00B5400668354305601579CE
:10032000012D02D01579022D16D185684F000326C4
:10033000BE40B543856055794E00B540866835436B
:100340008560456801268E40B543456045689679CD
:100350008E40B6B235434560C5684F000326BE40A7
:10036000B543C560D5794E00B540C6683543C56014
:10037000491C1029BFD3F0BDF0B5002300244D0760
:10038000ED0E02FA05F3CE1000F1200555F82650C7
:100390004E07F70E0F26BE40B543CF1000F12006E2
:1003A00046F82750CE1000F1200555F8265045EAB2
:1003B0000304CE1000F1200545F82640F0BD00BF33
:1003C000FEE721B1028842F48062028004E00288E4
:1003D0004FF6FF331A400280704770B50246002482
:1003E000002500230020958A138B1B0445EA030691
:1003F00026F07F4404EA01068E4201D1012000E08C
:10040000002070BD21B1028842F00102028004E0A8
:1004100002884FF6FE731A400280704700B587B01D
:100420000121022000F08AF90121022000F086F962
:100430000121480500F092F90121480500F09EF9DC
:1004400000214FF4001000F099F902208DF81800F7
:1004500001208DF81A004020059002208DF8190027
:1004600000208DF81B0005A91748FFF73DFF042267
:1004700006211548FFF780FF042207211248FFF7E5
:100480007BFF8020059005A90F48FFF72DFF002076
:10049000ADF808004BF6FF70ADF80A000020ADF88B
:1004A0000C004FF48060ADF80E000001ADF81000B4
:1004B0000648019001A9064800F042F801210448CD
:1004C000FFF7A0FF07B000BD00040240A0860100B6
:1004D0000054004021B1028842F48072028004E09E
:1004E00002884FF6FF631A400280704721B10288EC
:1004F00042F40072028004E002884FF6FF531A4073
:10050000028070470CB5024600200023019300933F
:1005100000920B0F019321F07F41019B1BB1009BC7
:100520001433009303E0090C009B18330093009BE5
:100530001B680B400BB1012000E000200CBD000047
:100540002DE9FF4704460D460026B1460427DFF893
:10055000CC80A6884FF6C0700640684600F01EF9B1
:10056000DDF808802E48B8FBF0F01FFA80F946EA63
:100570000906A68020884FF6FE71084020800026DC
:100580002849286888420CD828684000B8FBF0F059
:1005900087B2042F00DA04273E4309F101002084CA
:1005A00027E0E8884BF6FF71884206D1286800EB07
:1005B0004000B8FBF0F087B209E0286800EBC0010A
:1005C00001EB0010B8FBF0F087B247F48047C7F3A7
:1005D0000B0008B947F0010747F4004006434FF409
:1005E000967009FB00F04FF47A7190FBF1F0401C1B
:1005F0002084A683208840F00100208026884FF6C2
:10060000F5300640A8886989084306432680A889F2
:10061000298908432081BDE8FF87000000127A0085
:1006200040420F00A08601002DE9F04107468846B0
:1006300015461E46069C14B90120BDE8F08100BF96
:100640004FF400313846FFF75DFF0028F8D1012153
:100650003846FFF7B6FE01213846FFF73BFF00BFE3
:100660002B493846FFF7B9FE0028F9D00022414651
:10067000384600F055F800BF26493846FFF7ADFE72
:100680000028F9D02946384600F052F800BF214929
:10069000891C3846FFF7A1FE0028F8D00121384612
:1006A000FFF718FF00BF1A493846FFF796FE0028EB
:1006B000F9D001224146384600F032F800BF144913
:1006C000491C3846FFF789FE0028F8D017E0012CB6
:1006D00007D100213846FFF774FE01213846FFF7A5
:1006E00005FF00BF0A493F313846FFF776FE002874
:1006F000F8D0384600F010F83070601E84B2002C3C
:10070000E5D101213846FFF75CFE002095E70000A7
:1007100001000300820007000146088AC0B270474A
:1007200012B141F0010101E001F0FE0101827047C8
:100730000182704700BFFEE77047704729B1064A43
:1007400012680243044B1A6004E0034A12688243B1
:10075000014B1A60704700003038024029B1064A48
:1007600012680243044B1A6004E0034A1268824391
:10077000014B1A60704700004038024029B1064A18
:1007800012680243044B1A6004E0034A1268824371
:10079000014B1A607047000020380240F0B500217C
:1007A00000220024022500260223324F3F6807F072
:1007B0000C0121B1042905D0082937D105E02E4FBD
:1007C000076036E02D4F076033E02A4F3F1F3F6838
:1007D000C7F38056274F3F1F3F6807F03F036EB1B6
:1007E000264FB7FBF3F7DFF88CC0ACF1040CDCF854
:1007F00000C0CCF3881C07FB0CF40CE01E4FB7FBC9
:10080000F3F7DFF870C0ACF1040CDCF800C0CCF3F7
:10081000881C07FB0CF4174F3F1F3F68C7F30147C5
:100820007F1C7D00B4FBF5F7076002E0124F076004
:1008300000BF00BF0F4F3F6807F0F0010909104FDC
:100840007A5C0768D74047600A4F3F6807F4E05179
:10085000890A0B4F7A5C4768D7408760054F3F682D
:1008600007F46041490B064F7A5C4768D740C76080
:10087000F0BD0000083802400024F40000127A00A5
:1008800018000020704700000CB500200190009077
:100890003448006840F480303249086000BF314875
:1008A000006800F4003000900198401C019000980E
:1008B00018B90198B0F5A04FF1D12A48006800F4AA
:1008C000003010B10120009001E00020009000985D
:1008D000012846D123484030006840F0805021492B
:1008E000403108602048006840F440401E490860DC
:1008F0001C48083000681B49083108600846006839
:1009000040F4004008600846006840F4A0500860C9
:100910001648091F0860081F006840F08070091F12
:10092000086000BF0F48006800F000700028F9D090
:1009300040F205700E4908600A480830006820F04F
:1009400003000849083108600846006840F00200CA
:10095000086000BF03480830006800F00C00082859
:10096000F8D10CBD00380240007000400854400728
:10097000003C024010B500F093F810BD10B51548CA
:10098000006840F47000134908601348006840F0A4
:1009900001001149086000200F49083108600E4825
:1009A00000680E4908400C4908600D48091D0860A0
:1009B000081F006820F48020091F086000200649F5
:1009C0000C310860FFF760FF4FF00060014980398B
:1009D000086010BD88ED00E000380240FFFFF6FE21
:1009E000103000240349086000BF0249096800294B
:1009F000FBD170472800002030B5254800684FF42F
:100A00007A72B0FBF2F1481EB0F1807F01D3012071
:100A10001BE0481E4FF0E022506150170F220028C3
:100A200007DA13071D0E1B4B00F00F04241F1D5582
:100A300003E013071C0E184B1C5400BF00204FF09E
:100A4000E0229061072010610020F8B100BF00BFD4
:100A500000BF00BF00BFBFF34F8F00BF00BF00BF8C
:100A60000C480C38006800F4E0600C490843001D95
:100A700008490C39086000BF00BF00BFBFF34F8FAB
:100A800000BF00BF00BF00E000BFFDE730BD0000B9
:100A90000000002018ED00E000E400E00000FA058E
:100AA0000448006820B103480068401E01490860FE
:100AB000704700002800002000BFFEE708B5FFF7E0
:100AC0009BFFFFF7ABFC2BE00120164B0022B82167
:100AD00000901548FFF7A8FD0320FFF783FF0120D2
:100AE000124B0246B82100900F48FFF79DFD0320EE
:100AF000FFF778FF01200E4B0222B82100900A4830
:100B0000FFF792FD0320FFF76DFF0120094B032241
:100B1000B82100900448FFF787FD0320FFF762FF2C
:100B2000D2E700001600002000540040170000200B
:100B300014000020150000204FF04070E1EE100A74
:100B400070470000640B0008000000202C0000002B
:100B5000C4010008900B00082C000020640600006F
:100B6000E0010008007A030A000000000000000015
:100B7000010203040607080900000000000000004D
:100B80000102030401020304060708090000000033
:040000050800018965
:00000001FF
